{
  "contractName": "Activatable",
  "abi": [
    {
      "constant": false,
      "inputs": [
        {
          "name": "newOwner",
          "type": "address"
        }
      ],
      "name": "changeOwner",
      "outputs": [],
      "payable": false,
      "stateMutability": "nonpayable",
      "type": "function"
    },
    {
      "inputs": [
        {
          "name": "_activate",
          "type": "bool"
        }
      ],
      "payable": false,
      "stateMutability": "nonpayable",
      "type": "constructor"
    },
    {
      "anonymous": false,
      "inputs": [
        {
          "indexed": false,
          "name": "sender",
          "type": "address"
        },
        {
          "indexed": false,
          "name": "active",
          "type": "bool"
        }
      ],
      "name": "LogActivateDeactivate",
      "type": "event"
    },
    {
      "anonymous": false,
      "inputs": [
        {
          "indexed": false,
          "name": "sender",
          "type": "address"
        },
        {
          "indexed": false,
          "name": "active",
          "type": "bool"
        }
      ],
      "name": "LogContractDeath",
      "type": "event"
    },
    {
      "anonymous": false,
      "inputs": [
        {
          "indexed": false,
          "name": "sender",
          "type": "address"
        },
        {
          "indexed": false,
          "name": "owner",
          "type": "address"
        }
      ],
      "name": "LogOwnerChanged",
      "type": "event"
    },
    {
      "constant": false,
      "inputs": [],
      "name": "killContract",
      "outputs": [],
      "payable": false,
      "stateMutability": "nonpayable",
      "type": "function"
    },
    {
      "constant": false,
      "inputs": [],
      "name": "deactivateContract",
      "outputs": [],
      "payable": false,
      "stateMutability": "nonpayable",
      "type": "function"
    },
    {
      "constant": false,
      "inputs": [],
      "name": "activateContract",
      "outputs": [],
      "payable": false,
      "stateMutability": "nonpayable",
      "type": "function"
    },
    {
      "constant": true,
      "inputs": [],
      "name": "isActivated",
      "outputs": [
        {
          "name": "actiavted",
          "type": "bool"
        }
      ],
      "payable": false,
      "stateMutability": "view",
      "type": "function"
    }
  ],
  "bytecode": "0x608060405234801561001057600080fd5b50604051602080610c608339810180604052602081101561003057600080fd5b8101908080519060200190929190505050336000806101000a81548173ffffffffffffffffffffffffffffffffffffffff021916908373ffffffffffffffffffffffffffffffffffffffff16021790555080600060146101000a81548160ff02191690831515021790555060008060156101000a81548160ff0219169083151502179055507f4f02cb16574e46ddfc8d8ca70542b26c02d9dc3efe535e2d0a0ebbaab3e0fd253382604051808373ffffffffffffffffffffffffffffffffffffffff1673ffffffffffffffffffffffffffffffffffffffff168152602001821515151581526020019250505060405180910390a17fd3d0b34b035faf1e1b56e9cd7f67abbd55f0cee7b464e454c3b4a634e3b5cd76336000604051808373ffffffffffffffffffffffffffffffffffffffff1673ffffffffffffffffffffffffffffffffffffffff168152602001821515151581526020019250505060405180910390a150610abc806101a46000396000f3fe60806040526004361061006d576000357c0100000000000000000000000000000000000000000000000000000000900463ffffffff1680631c02708d146100725780634a8c1fb4146100895780638fda356d146100b8578063a6f9dae1146100cf578063bca353be14610120575b600080fd5b34801561007e57600080fd5b50610087610137565b005b34801561009557600080fd5b5061009e610341565b604051808215151515815260200191505060405180910390f35b3480156100c457600080fd5b506100cd610357565b005b3480156100db57600080fd5b5061011e600480360360208110156100f257600080fd5b81019080803573ffffffffffffffffffffffffffffffffffffffff1690602001909291905050506105e6565b005b34801561012c57600080fd5b50610135610829565b005b600060149054906101000a900460ff161515156101e2576040517f08c379a00000000000000000000000000000000000000000000000000000000081526004018080602001828103825260258152602001807f436f6e74726163742069732072756e6e696e672c20646561637469617674652081526020017f666972737400000000000000000000000000000000000000000000000000000081525060400191505060405180910390fd5b3373ffffffffffffffffffffffffffffffffffffffff166000809054906101000a900473ffffffffffffffffffffffffffffffffffffffff1673ffffffffffffffffffffffffffffffffffffffff161415156102a6576040517f08c379a00000000000000000000000000000000000000000000000000000000081526004018080602001828103825260158152602001807f596f7520617265206e6f7420746865206f776e6572000000000000000000000081525060200191505060405180910390fd5b6001600060156101000a81548160ff0219169083151502179055507fd3d0b34b035faf1e1b56e9cd7f67abbd55f0cee7b464e454c3b4a634e3b5cd7633600060159054906101000a900460ff16604051808373ffffffffffffffffffffffffffffffffffffffff1673ffffffffffffffffffffffffffffffffffffffff168152602001821515151581526020019250505060405180910390a1565b60008060149054906101000a900460ff16905090565b600060159054906101000a900460ff161515156103dc576040517f08c379a00000000000000000000000000000000000000000000000000000000081526004018080602001828103825260138152602001807f436f6e747261637420776173206b696c6c65640000000000000000000000000081525060200191505060405180910390fd5b3373ffffffffffffffffffffffffffffffffffffffff166000809054906101000a900473ffffffffffffffffffffffffffffffffffffffff1673ffffffffffffffffffffffffffffffffffffffff161415156104a0576040517f08c379a00000000000000000000000000000000000000000000000000000000081526004018080602001828103825260158152602001807f596f7520617265206e6f7420746865206f776e6572000000000000000000000081525060200191505060405180910390fd5b600060149054906101000a900460ff1615151561054b576040517f08c379a00000000000000000000000000000000000000000000000000000000081526004018080602001828103825260258152602001807f436f6e74726163742069732072756e6e696e672c20646561637469617674652081526020017f666972737400000000000000000000000000000000000000000000000000000081525060400191505060405180910390fd5b6001600060146101000a81548160ff0219169083151502179055507f4f02cb16574e46ddfc8d8ca70542b26c02d9dc3efe535e2d0a0ebbaab3e0fd2533600060149054906101000a900460ff16604051808373ffffffffffffffffffffffffffffffffffffffff1673ffffffffffffffffffffffffffffffffffffffff168152602001821515151581526020019250505060405180910390a1565b3373ffffffffffffffffffffffffffffffffffffffff166000809054906101000a900473ffffffffffffffffffffffffffffffffffffffff1673ffffffffffffffffffffffffffffffffffffffff161415156106aa576040517f08c379a00000000000000000000000000000000000000000000000000000000081526004018080602001828103825260158152602001807f596f7520617265206e6f7420746865206f776e6572000000000000000000000081525060200191505060405180910390fd5b600073ffffffffffffffffffffffffffffffffffffffff168173ffffffffffffffffffffffffffffffffffffffff161415151561074f576040517f08c379a00000000000000000000000000000000000000000000000000000000081526004018080602001828103825260158152602001807f5061737320696e2076616c69642061646472657373000000000000000000000081525060200191505060405180910390fd5b806000806101000a81548173ffffffffffffffffffffffffffffffffffffffff021916908373ffffffffffffffffffffffffffffffffffffffff1602179055507ffcf23a92150d56e85e3a3d33b357493246e55783095eb6a733eb8439ffc752c83382604051808373ffffffffffffffffffffffffffffffffffffffff1673ffffffffffffffffffffffffffffffffffffffff1681526020018273ffffffffffffffffffffffffffffffffffffffff1673ffffffffffffffffffffffffffffffffffffffff1681526020019250505060405180910390a150565b600060159054906101000a900460ff161515156108ae576040517f08c379a00000000000000000000000000000000000000000000000000000000081526004018080602001828103825260138152602001807f436f6e747261637420776173206b696c6c65640000000000000000000000000081525060200191505060405180910390fd5b3373ffffffffffffffffffffffffffffffffffffffff166000809054906101000a900473ffffffffffffffffffffffffffffffffffffffff1673ffffffffffffffffffffffffffffffffffffffff16141515610972576040517f08c379a00000000000000000000000000000000000000000000000000000000081526004018080602001828103825260158152602001807f596f7520617265206e6f7420746865206f776e6572000000000000000000000081525060200191505060405180910390fd5b600060149054906101000a900460ff1615156109f6576040517f08c379a00000000000000000000000000000000000000000000000000000000081526004018080602001828103825260198152602001807f436f6e7472616374206973206e6f74206163746976617465640000000000000081525060200191505060405180910390fd5b60008060146101000a81548160ff0219169083151502179055507f4f02cb16574e46ddfc8d8ca70542b26c02d9dc3efe535e2d0a0ebbaab3e0fd2533600060149054906101000a900460ff16604051808373ffffffffffffffffffffffffffffffffffffffff1673ffffffffffffffffffffffffffffffffffffffff168152602001821515151581526020019250505060405180910390a156fea165627a7a7230582012c3a00b030176600e10d03a8d1e55366135b59bae7d91412dfd9965cc3a6c4e0029",
  "source": "pragma solidity ^0.5.0;\r\n\r\nimport \"./Owned.sol\";\r\n\r\ncontract Activatable is Owned{\r\n    bool private activated; //current state of the contract\r\n    bool private killed; //is the contract dead\r\n\r\n    //log contract activation and deactivation\r\n    event LogActivateDeactivate(address sender, bool active);\r\n    //log contract activation and deactivation\r\n    event LogContractDeath(address sender, bool active);\r\n\r\n    //upon instantiation set the active state of the contract\r\n    constructor(bool _activate) public{\r\n        activated = _activate;\r\n        killed = false;\r\n        emit LogActivateDeactivate(msg.sender,_activate);\r\n        emit LogContractDeath(msg.sender, false);\r\n    }\r\n\r\n    //modifier check if contract is alive\r\n    modifier ifAlive(){\r\n                require(!killed,\"Contract was killed\");\r\n                _;\r\n            }\r\n\r\n    //kill the contract\r\n    function killContract() public ifDeactivated onlyOwner{\r\n        killed = true;\r\n        emit LogContractDeath(msg.sender,killed);\r\n    }\r\n\r\n    //modifier function - only execute some features of contract is activated\r\n    modifier ifActivated(){\r\n        require(activated,\"Contract is not activated\");\r\n        _;\r\n    }\r\n\r\n    //modifier function - only execute some features of contract is deactivated\r\n    modifier ifDeactivated(){\r\n        require(!activated,\"Contract is running, deactiavte first\");\r\n        _;\r\n    }\r\n\r\n    //stops the contract only if the owner calls it and only if the contract is activated\r\n    function deactivateContract() public ifAlive onlyOwner ifActivated {\r\n        activated = false;\r\n        emit LogActivateDeactivate(msg.sender,activated);\r\n    }\r\n\r\n    //activates the contract only if the owner wills it\r\n    function activateContract() public ifAlive onlyOwner ifDeactivated{\r\n        activated = true;\r\n        emit LogActivateDeactivate(msg.sender,activated);\r\n    }\r\n\r\n    //get the current status of the contract\r\n    function isActivated() public view returns(bool actiavted){\r\n        return activated;\r\n    }\r\n}",
  "sourcePath": "C:\\Users\\tinashe.dumbura\\OneDrive - TelOne\\b9lab\\splitter\\contracts\\Activatable.sol",
  "compiler": {
    "name": "solc",
    "version": "0.5.0+commit.1d4f565a.Emscripten.clang"
  },
  "schemaVersion": "3.0.9",
  "updatedAt": "2019-05-23T06:53:57.803Z",
  "devdoc": {
    "methods": {}
  },
  "userdoc": {
    "methods": {}
  }
}