{
  "contractName": "Owned",
  "abi": [
    {
      "inputs": [],
      "payable": false,
      "stateMutability": "nonpayable",
      "type": "constructor"
    },
    {
      "anonymous": false,
      "inputs": [
        {
          "indexed": false,
          "name": "sender",
          "type": "address"
        },
        {
          "indexed": false,
          "name": "owner",
          "type": "address"
        }
      ],
      "name": "LogOwnerChanged",
      "type": "event"
    },
    {
      "constant": false,
      "inputs": [
        {
          "name": "newOwner",
          "type": "address"
        }
      ],
      "name": "changeOwner",
      "outputs": [],
      "payable": false,
      "stateMutability": "nonpayable",
      "type": "function"
    }
  ],
  "bytecode": "0x608060405234801561001057600080fd5b50336000806101000a81548173ffffffffffffffffffffffffffffffffffffffff021916908373ffffffffffffffffffffffffffffffffffffffff160217905550610306806100606000396000f3fe608060405260043610610041576000357c0100000000000000000000000000000000000000000000000000000000900463ffffffff168063a6f9dae114610046575b600080fd5b34801561005257600080fd5b506100956004803603602081101561006957600080fd5b81019080803573ffffffffffffffffffffffffffffffffffffffff169060200190929190505050610097565b005b3373ffffffffffffffffffffffffffffffffffffffff166000809054906101000a900473ffffffffffffffffffffffffffffffffffffffff1673ffffffffffffffffffffffffffffffffffffffff1614151561015b576040517f08c379a00000000000000000000000000000000000000000000000000000000081526004018080602001828103825260158152602001807f596f7520617265206e6f7420746865206f776e6572000000000000000000000081525060200191505060405180910390fd5b600073ffffffffffffffffffffffffffffffffffffffff168173ffffffffffffffffffffffffffffffffffffffff1614151515610200576040517f08c379a00000000000000000000000000000000000000000000000000000000081526004018080602001828103825260158152602001807f5061737320696e2076616c69642061646472657373000000000000000000000081525060200191505060405180910390fd5b806000806101000a81548173ffffffffffffffffffffffffffffffffffffffff021916908373ffffffffffffffffffffffffffffffffffffffff1602179055507ffcf23a92150d56e85e3a3d33b357493246e55783095eb6a733eb8439ffc752c83382604051808373ffffffffffffffffffffffffffffffffffffffff1673ffffffffffffffffffffffffffffffffffffffff1681526020018273ffffffffffffffffffffffffffffffffffffffff1673ffffffffffffffffffffffffffffffffffffffff1681526020019250505060405180910390a15056fea165627a7a72305820ba987c81511b7cb201acafb2a8b1e96f8d2d1d9b9ab7dc2cfd676c37aee4a2af0029",
  "source": "pragma solidity ^0.5.0;\r\n\r\ncontract Owned{\r\n    //identifies the owner of the contract / admin\r\n    address private owner;\r\n\r\n    //log when owner is changed\r\n    event LogOwnerChanged(address sender, address owner);\r\n\r\n    //set the owner of the contract\r\n    constructor() public{\r\n        owner = msg.sender;\r\n    }\r\n\r\n    //a modifier that only the admin can do something\r\n    modifier  onlyOwner() {\r\n        require(owner == msg.sender,\"You are not the owner\");\r\n        _;\r\n    }\r\n\r\n    //only the current owner should be able to change owner\r\n    function changeOwner(address newOwner) public onlyOwner{\r\n        require(newOwner != address(0), \"Pass in valid address\");\r\n        owner = newOwner;\r\n        emit LogOwnerChanged(msg.sender,newOwner);\r\n    }\r\n}",
  "sourcePath": "C:\\Users\\tinashe.dumbura\\OneDrive - TelOne\\b9lab\\splitter\\contracts\\Owned.sol",
  "compiler": {
    "name": "solc",
    "version": "0.5.0+commit.1d4f565a.Emscripten.clang"
  },
  "schemaVersion": "3.0.9",
  "updatedAt": "2019-05-23T06:53:57.811Z",
  "devdoc": {
    "methods": {}
  },
  "userdoc": {
    "methods": {}
  }
}