{
  "contractName": "Splitter",
  "abi": [
    {
      "constant": false,
      "inputs": [],
      "name": "killContract",
      "outputs": [],
      "payable": false,
      "stateMutability": "nonpayable",
      "type": "function"
    },
    {
      "constant": true,
      "inputs": [],
      "name": "isActivated",
      "outputs": [
        {
          "name": "actiavted",
          "type": "bool"
        }
      ],
      "payable": false,
      "stateMutability": "view",
      "type": "function"
    },
    {
      "constant": false,
      "inputs": [],
      "name": "activateContract",
      "outputs": [],
      "payable": false,
      "stateMutability": "nonpayable",
      "type": "function"
    },
    {
      "constant": false,
      "inputs": [
        {
          "name": "newOwner",
          "type": "address"
        }
      ],
      "name": "changeOwner",
      "outputs": [],
      "payable": false,
      "stateMutability": "nonpayable",
      "type": "function"
    },
    {
      "constant": true,
      "inputs": [
        {
          "name": "",
          "type": "address"
        }
      ],
      "name": "recieversBalances",
      "outputs": [
        {
          "name": "",
          "type": "uint256"
        }
      ],
      "payable": false,
      "stateMutability": "view",
      "type": "function"
    },
    {
      "constant": false,
      "inputs": [],
      "name": "deactivateContract",
      "outputs": [],
      "payable": false,
      "stateMutability": "nonpayable",
      "type": "function"
    },
    {
      "inputs": [
        {
          "name": "_activated",
          "type": "bool"
        }
      ],
      "payable": false,
      "stateMutability": "nonpayable",
      "type": "constructor"
    },
    {
      "anonymous": false,
      "inputs": [
        {
          "indexed": false,
          "name": "sender",
          "type": "address"
        },
        {
          "indexed": false,
          "name": "amount",
          "type": "uint256"
        }
      ],
      "name": "LogBalanceWithdrawn",
      "type": "event"
    },
    {
      "anonymous": false,
      "inputs": [
        {
          "indexed": false,
          "name": "sender",
          "type": "address"
        },
        {
          "indexed": false,
          "name": "affectedAccount",
          "type": "address"
        },
        {
          "indexed": false,
          "name": "amount",
          "type": "uint256"
        }
      ],
      "name": "LogBalanceCredited",
      "type": "event"
    },
    {
      "anonymous": false,
      "inputs": [
        {
          "indexed": false,
          "name": "sender",
          "type": "address"
        },
        {
          "indexed": false,
          "name": "active",
          "type": "bool"
        }
      ],
      "name": "LogActivateDeactivate",
      "type": "event"
    },
    {
      "anonymous": false,
      "inputs": [
        {
          "indexed": false,
          "name": "sender",
          "type": "address"
        },
        {
          "indexed": false,
          "name": "active",
          "type": "bool"
        }
      ],
      "name": "LogContractDeath",
      "type": "event"
    },
    {
      "anonymous": false,
      "inputs": [
        {
          "indexed": false,
          "name": "sender",
          "type": "address"
        },
        {
          "indexed": false,
          "name": "owner",
          "type": "address"
        }
      ],
      "name": "LogOwnerChanged",
      "type": "event"
    },
    {
      "constant": false,
      "inputs": [
        {
          "name": "reciever1",
          "type": "address"
        },
        {
          "name": "reciever2",
          "type": "address"
        }
      ],
      "name": "splitEther",
      "outputs": [],
      "payable": true,
      "stateMutability": "payable",
      "type": "function"
    },
    {
      "constant": false,
      "inputs": [],
      "name": "withdraw",
      "outputs": [],
      "payable": false,
      "stateMutability": "nonpayable",
      "type": "function"
    }
  ],
  "bytecode": "0x608060405234801561001057600080fd5b506040516020806116ab8339810180604052602081101561003057600080fd5b810190808051906020019092919050505080336000806101000a81548173ffffffffffffffffffffffffffffffffffffffff021916908373ffffffffffffffffffffffffffffffffffffffff16021790555080600060146101000a81548160ff02191690831515021790555060008060156101000a81548160ff0219169083151502179055507f4f02cb16574e46ddfc8d8ca70542b26c02d9dc3efe535e2d0a0ebbaab3e0fd253382604051808373ffffffffffffffffffffffffffffffffffffffff1673ffffffffffffffffffffffffffffffffffffffff168152602001821515151581526020019250505060405180910390a17fd3d0b34b035faf1e1b56e9cd7f67abbd55f0cee7b464e454c3b4a634e3b5cd76336000604051808373ffffffffffffffffffffffffffffffffffffffff1673ffffffffffffffffffffffffffffffffffffffff168152602001821515151581526020019250505060405180910390a15050611505806101a66000396000f3fe60806040526004361061008e576000357c0100000000000000000000000000000000000000000000000000000000900463ffffffff1680631c02708d146100935780633ccfd60b146100aa5780634a8c1fb4146100c157806369b08d7d146100f05780638fda356d14610154578063a6f9dae11461016b578063b4654172146101bc578063bca353be14610221575b600080fd5b34801561009f57600080fd5b506100a8610238565b005b3480156100b657600080fd5b506100bf610442565b005b3480156100cd57600080fd5b506100d661061e565b604051808215151515815260200191505060405180910390f35b6101526004803603604081101561010657600080fd5b81019080803573ffffffffffffffffffffffffffffffffffffffff169060200190929190803573ffffffffffffffffffffffffffffffffffffffff169060200190929190505050610634565b005b34801561016057600080fd5b50610169610d88565b005b34801561017757600080fd5b506101ba6004803603602081101561018e57600080fd5b81019080803573ffffffffffffffffffffffffffffffffffffffff169060200190929190505050611017565b005b3480156101c857600080fd5b5061020b600480360360208110156101df57600080fd5b81019080803573ffffffffffffffffffffffffffffffffffffffff16906020019092919050505061125a565b6040518082815260200191505060405180910390f35b34801561022d57600080fd5b50610236611272565b005b600060149054906101000a900460ff161515156102e3576040517f08c379a00000000000000000000000000000000000000000000000000000000081526004018080602001828103825260258152602001807f436f6e74726163742069732072756e6e696e672c20646561637469617674652081526020017f666972737400000000000000000000000000000000000000000000000000000081525060400191505060405180910390fd5b3373ffffffffffffffffffffffffffffffffffffffff166000809054906101000a900473ffffffffffffffffffffffffffffffffffffffff1673ffffffffffffffffffffffffffffffffffffffff161415156103a7576040517f08c379a00000000000000000000000000000000000000000000000000000000081526004018080602001828103825260158152602001807f596f7520617265206e6f7420746865206f776e6572000000000000000000000081525060200191505060405180910390fd5b6001600060156101000a81548160ff0219169083151502179055507fd3d0b34b035faf1e1b56e9cd7f67abbd55f0cee7b464e454c3b4a634e3b5cd7633600060159054906101000a900460ff16604051808373ffffffffffffffffffffffffffffffffffffffff1673ffffffffffffffffffffffffffffffffffffffff168152602001821515151581526020019250505060405180910390a1565b6000600160003373ffffffffffffffffffffffffffffffffffffffff1673ffffffffffffffffffffffffffffffffffffffff168152602001908152602001600020549050600081111515610524576040517f08c379a00000000000000000000000000000000000000000000000000000000081526004018080602001828103825260238152602001807f61646472657373206d757374206861766520657468657220696e20636f6e747281526020017f616374000000000000000000000000000000000000000000000000000000000081525060400191505060405180910390fd5b7fb12f6e93c65890804242cddfedfcf792325dc0dbc88ed1a8b9b3adab358fb1783382604051808373ffffffffffffffffffffffffffffffffffffffff1673ffffffffffffffffffffffffffffffffffffffff1681526020018281526020019250505060405180910390a16000600160003373ffffffffffffffffffffffffffffffffffffffff1673ffffffffffffffffffffffffffffffffffffffff168152602001908152602001600020819055503373ffffffffffffffffffffffffffffffffffffffff166108fc829081150290604051600060405180830381858888f1935050505015801561061a573d6000803e3d6000fd5b5050565b60008060149054906101000a900460ff16905090565b600060159054906101000a900460ff161515156106b9576040517f08c379a00000000000000000000000000000000000000000000000000000000081526004018080602001828103825260138152602001807f436f6e747261637420776173206b696c6c65640000000000000000000000000081525060200191505060405180910390fd5b600060149054906101000a900460ff16151561073d576040517f08c379a00000000000000000000000000000000000000000000000000000000081526004018080602001828103825260198152602001807f436f6e7472616374206973206e6f74206163746976617465640000000000000081525060200191505060405180910390fd5b600073ffffffffffffffffffffffffffffffffffffffff168273ffffffffffffffffffffffffffffffffffffffff16141580156107a75750600073ffffffffffffffffffffffffffffffffffffffff168173ffffffffffffffffffffffffffffffffffffffff1614155b151561081b576040517f08c379a00000000000000000000000000000000000000000000000000000000081526004018080602001828103825260178152602001807f50726f766964652076616c69642061646472657373657300000000000000000081525060200191505060405180910390fd5b8073ffffffffffffffffffffffffffffffffffffffff168273ffffffffffffffffffffffffffffffffffffffff16141515156108bf576040517f08c379a000000000000000000000000000000000000000000000000000000000815260040180806020018281038252601b8152602001807f50726f7669646520646966666572656e7420616464726573736573000000000081525060200191505060405180910390fd5b600034111515610937576040517f08c379a000000000000000000000000000000000000000000000000000000000815260040180806020018281038252601c8152602001807f596f75206d7573742073656e6420657468657220746f2073706c69740000000081525060200191505060405180910390fd5b60023481151561094357fe5b06600160003373ffffffffffffffffffffffffffffffffffffffff1673ffffffffffffffffffffffffffffffffffffffff1681526020019081526020016000205401600160003373ffffffffffffffffffffffffffffffffffffffff1673ffffffffffffffffffffffffffffffffffffffff168152602001908152602001600020819055506002348115156109d457fe5b04600160008473ffffffffffffffffffffffffffffffffffffffff1673ffffffffffffffffffffffffffffffffffffffff1681526020019081526020016000205401600160008473ffffffffffffffffffffffffffffffffffffffff1673ffffffffffffffffffffffffffffffffffffffff16815260200190815260200160002081905550600234811515610a6557fe5b04600160008373ffffffffffffffffffffffffffffffffffffffff1673ffffffffffffffffffffffffffffffffffffffff1681526020019081526020016000205401600160008373ffffffffffffffffffffffffffffffffffffffff1673ffffffffffffffffffffffffffffffffffffffff168152602001908152602001600020819055507f8a5b008213ef36968574ad8ba50d5ad239e8f4fc3a640c4b4e97e994b800ae6a3333600160003373ffffffffffffffffffffffffffffffffffffffff1673ffffffffffffffffffffffffffffffffffffffff16815260200190815260200160002054604051808473ffffffffffffffffffffffffffffffffffffffff1673ffffffffffffffffffffffffffffffffffffffff1681526020018373ffffffffffffffffffffffffffffffffffffffff1673ffffffffffffffffffffffffffffffffffffffff168152602001828152602001935050505060405180910390a17f8a5b008213ef36968574ad8ba50d5ad239e8f4fc3a640c4b4e97e994b800ae6a3383600160008673ffffffffffffffffffffffffffffffffffffffff1673ffffffffffffffffffffffffffffffffffffffff16815260200190815260200160002054604051808473ffffffffffffffffffffffffffffffffffffffff1673ffffffffffffffffffffffffffffffffffffffff1681526020018373ffffffffffffffffffffffffffffffffffffffff1673ffffffffffffffffffffffffffffffffffffffff168152602001828152602001935050505060405180910390a17f8a5b008213ef36968574ad8ba50d5ad239e8f4fc3a640c4b4e97e994b800ae6a3382600160008573ffffffffffffffffffffffffffffffffffffffff1673ffffffffffffffffffffffffffffffffffffffff16815260200190815260200160002054604051808473ffffffffffffffffffffffffffffffffffffffff1673ffffffffffffffffffffffffffffffffffffffff1681526020018373ffffffffffffffffffffffffffffffffffffffff1673ffffffffffffffffffffffffffffffffffffffff168152602001828152602001935050505060405180910390a15050565b600060159054906101000a900460ff16151515610e0d576040517f08c379a00000000000000000000000000000000000000000000000000000000081526004018080602001828103825260138152602001807f436f6e747261637420776173206b696c6c65640000000000000000000000000081525060200191505060405180910390fd5b3373ffffffffffffffffffffffffffffffffffffffff166000809054906101000a900473ffffffffffffffffffffffffffffffffffffffff1673ffffffffffffffffffffffffffffffffffffffff16141515610ed1576040517f08c379a00000000000000000000000000000000000000000000000000000000081526004018080602001828103825260158152602001807f596f7520617265206e6f7420746865206f776e6572000000000000000000000081525060200191505060405180910390fd5b600060149054906101000a900460ff16151515610f7c576040517f08c379a00000000000000000000000000000000000000000000000000000000081526004018080602001828103825260258152602001807f436f6e74726163742069732072756e6e696e672c20646561637469617674652081526020017f666972737400000000000000000000000000000000000000000000000000000081525060400191505060405180910390fd5b6001600060146101000a81548160ff0219169083151502179055507f4f02cb16574e46ddfc8d8ca70542b26c02d9dc3efe535e2d0a0ebbaab3e0fd2533600060149054906101000a900460ff16604051808373ffffffffffffffffffffffffffffffffffffffff1673ffffffffffffffffffffffffffffffffffffffff168152602001821515151581526020019250505060405180910390a1565b3373ffffffffffffffffffffffffffffffffffffffff166000809054906101000a900473ffffffffffffffffffffffffffffffffffffffff1673ffffffffffffffffffffffffffffffffffffffff161415156110db576040517f08c379a00000000000000000000000000000000000000000000000000000000081526004018080602001828103825260158152602001807f596f7520617265206e6f7420746865206f776e6572000000000000000000000081525060200191505060405180910390fd5b600073ffffffffffffffffffffffffffffffffffffffff168173ffffffffffffffffffffffffffffffffffffffff1614151515611180576040517f08c379a00000000000000000000000000000000000000000000000000000000081526004018080602001828103825260158152602001807f5061737320696e2076616c69642061646472657373000000000000000000000081525060200191505060405180910390fd5b806000806101000a81548173ffffffffffffffffffffffffffffffffffffffff021916908373ffffffffffffffffffffffffffffffffffffffff1602179055507ffcf23a92150d56e85e3a3d33b357493246e55783095eb6a733eb8439ffc752c83382604051808373ffffffffffffffffffffffffffffffffffffffff1673ffffffffffffffffffffffffffffffffffffffff1681526020018273ffffffffffffffffffffffffffffffffffffffff1673ffffffffffffffffffffffffffffffffffffffff1681526020019250505060405180910390a150565b60016020528060005260406000206000915090505481565b600060159054906101000a900460ff161515156112f7576040517f08c379a00000000000000000000000000000000000000000000000000000000081526004018080602001828103825260138152602001807f436f6e747261637420776173206b696c6c65640000000000000000000000000081525060200191505060405180910390fd5b3373ffffffffffffffffffffffffffffffffffffffff166000809054906101000a900473ffffffffffffffffffffffffffffffffffffffff1673ffffffffffffffffffffffffffffffffffffffff161415156113bb576040517f08c379a00000000000000000000000000000000000000000000000000000000081526004018080602001828103825260158152602001807f596f7520617265206e6f7420746865206f776e6572000000000000000000000081525060200191505060405180910390fd5b600060149054906101000a900460ff16151561143f576040517f08c379a00000000000000000000000000000000000000000000000000000000081526004018080602001828103825260198152602001807f436f6e7472616374206973206e6f74206163746976617465640000000000000081525060200191505060405180910390fd5b60008060146101000a81548160ff0219169083151502179055507f4f02cb16574e46ddfc8d8ca70542b26c02d9dc3efe535e2d0a0ebbaab3e0fd2533600060149054906101000a900460ff16604051808373ffffffffffffffffffffffffffffffffffffffff1673ffffffffffffffffffffffffffffffffffffffff168152602001821515151581526020019250505060405180910390a156fea165627a7a723058205e6279145ae1ff2b885df14add85a4b0a49657599830bc0687753b3c6106a62a0029",
  "source": "pragma solidity ^0.5.0;\r\n\r\nimport \"./Activatable.sol\";\r\n\r\ncontract Splitter is Activatable{\r\n\r\n    //hold a map of addresses whose ether has been split\r\n    mapping (address => uint) public recieversBalances;\r\n\r\n    constructor(bool _activated) Activatable(_activated) public{}\r\n\r\n    event LogBalanceWithdrawn(address sender,uint amount);\r\n    event LogBalanceCredited (address sender,address affectedAccount,uint amount);\r\n\r\n    //split ether between any 2 parties | requires contract to be Active & Alive\r\n    function splitEther(address reciever1, address reciever2)public ifAlive ifActivated  payable{\r\n        require(reciever1 != address(0) && reciever2 != address(0),\"Provide valid addresses\"); //require valid addresses\r\n        require(reciever1 != reciever2,\"Provide different addresses\"); //require addresses to be different\r\n        require(msg.value>0,\"You must send ether to split\"); //require an amount to be sent\r\n\r\n        recieversBalances[msg.sender] = recieversBalances[msg.sender]+(msg.value%2);\r\n        recieversBalances[reciever1] = recieversBalances[reciever1]+(msg.value/2);\r\n        recieversBalances[reciever2] = recieversBalances[reciever2]+(msg.value/2);\r\n\r\n        emit LogBalanceCredited(msg.sender,msg.sender,recieversBalances[msg.sender]);\r\n        emit LogBalanceCredited(msg.sender,reciever1,recieversBalances[reciever1]);\r\n        emit LogBalanceCredited(msg.sender,reciever2,recieversBalances[reciever2]);\r\n    }\r\n\r\n    //anyone sent ether can withdraw\r\n    function withdraw() public{\r\n        uint _addressBalance = recieversBalances[msg.sender];\r\n        require(_addressBalance>0,\"address must have ether in contract\"); //address must have a balance in the contract\r\n         emit LogBalanceWithdrawn(msg.sender,_addressBalance);\r\n        recieversBalances[msg.sender] = 0;\r\n        msg.sender.transfer(_addressBalance);\r\n    }\r\n}",
  "sourcePath": "C:/Users/tinashe.dumbura/OneDrive - TelOne/b9lab/splitter/contracts/Splitter.sol",
  "compiler": {
    "name": "solc",
    "version": "0.5.0+commit.1d4f565a.Emscripten.clang"
  },
  "schemaVersion": "3.0.9",
  "updatedAt": "2019-05-23T06:53:58.953Z",
  "devdoc": {
    "methods": {}
  },
  "userdoc": {
    "methods": {}
  }
}