{
  "contractName": "Splitter",
  "abi": [
    {
      "constant": true,
      "inputs": [],
      "name": "splitterAddress",
      "outputs": [
        {
          "name": "",
          "type": "address"
        }
      ],
      "payable": false,
      "stateMutability": "view",
      "type": "function"
    },
    {
      "inputs": [],
      "payable": false,
      "stateMutability": "nonpayable",
      "type": "constructor"
    },
    {
      "constant": true,
      "inputs": [],
      "name": "getBalance",
      "outputs": [
        {
          "name": "balance",
          "type": "uint256"
        }
      ],
      "payable": false,
      "stateMutability": "view",
      "type": "function"
    }
  ],
  "bytecode": "0x608060405234801561001057600080fd5b50306000806101000a81548173ffffffffffffffffffffffffffffffffffffffff021916908373ffffffffffffffffffffffffffffffffffffffff160217905550610164806100606000396000f3fe60806040526004361061004c576000357c0100000000000000000000000000000000000000000000000000000000900463ffffffff16806312065fe014610051578063e4d817c51461007c575b600080fd5b34801561005d57600080fd5b506100666100d3565b6040518082815260200191505060405180910390f35b34801561008857600080fd5b50610091610113565b604051808273ffffffffffffffffffffffffffffffffffffffff1673ffffffffffffffffffffffffffffffffffffffff16815260200191505060405180910390f35b60008060009054906101000a900473ffffffffffffffffffffffffffffffffffffffff1673ffffffffffffffffffffffffffffffffffffffff1631905090565b6000809054906101000a900473ffffffffffffffffffffffffffffffffffffffff168156fea165627a7a7230582068dae04ee5f6d8b23f947b073e026b65192d181a666b07c00662aaa15415780a0029",
  "source": "pragma solidity ^0.5.0;\r\n\r\ncontract Splitter{\r\n    //the address of this contract\r\n    address public splitterAddress;\r\n\r\n    //when contract is created set the internal address variable\r\n    constructor() public {\r\n        splitterAddress = address(this);\r\n    }\r\n\r\n    //get the balance of the splitter contract\r\n    function getBalance() public view returns(uint balance){\r\n        return splitterAddress.balance;\r\n    }\r\n}",
  "sourcePath": "C:/Users/tinashe.dumbura/OneDrive - TelOne/b9lab/splitter/contracts/Splitter.sol",
  "compiler": {
    "name": "solc",
    "version": "0.5.0+commit.1d4f565a.Emscripten.clang"
  },
  "schemaVersion": "3.0.9",
  "updatedAt": "2019-05-19T15:35:10.686Z",
  "devdoc": {
    "methods": {}
  },
  "userdoc": {
    "methods": {}
  }
}